{
  "contractName": "SocialPressure",
  "abi": [
    {
      "constant": false,
      "inputs": [],
      "name": "renounceOwnership",
      "outputs": [],
      "payable": false,
      "stateMutability": "nonpayable",
      "type": "function"
    },
    {
      "constant": true,
      "inputs": [],
      "name": "owner",
      "outputs": [
        {
          "name": "",
          "type": "address"
        }
      ],
      "payable": false,
      "stateMutability": "view",
      "type": "function"
    },
    {
      "constant": false,
      "inputs": [
        {
          "name": "_newOwner",
          "type": "address"
        }
      ],
      "name": "transferOwnership",
      "outputs": [],
      "payable": false,
      "stateMutability": "nonpayable",
      "type": "function"
    },
    {
      "anonymous": false,
      "inputs": [
        {
          "indexed": true,
          "name": "userAddress",
          "type": "address"
        },
        {
          "indexed": false,
          "name": "index",
          "type": "uint256"
        },
        {
          "indexed": false,
          "name": "title",
          "type": "bytes32"
        }
      ],
      "name": "NewPledge",
      "type": "event"
    },
    {
      "anonymous": false,
      "inputs": [
        {
          "indexed": true,
          "name": "previousOwner",
          "type": "address"
        }
      ],
      "name": "OwnershipRenounced",
      "type": "event"
    },
    {
      "anonymous": false,
      "inputs": [
        {
          "indexed": true,
          "name": "previousOwner",
          "type": "address"
        },
        {
          "indexed": true,
          "name": "newOwner",
          "type": "address"
        }
      ],
      "name": "OwnershipTransferred",
      "type": "event"
    },
    {
      "constant": false,
      "inputs": [
        {
          "name": "_expiresAt",
          "type": "uint256"
        },
        {
          "name": "_expectedNumberOfActions",
          "type": "uint256"
        },
        {
          "name": "_title",
          "type": "bytes32"
        },
        {
          "name": "_details",
          "type": "string"
        }
      ],
      "name": "createPledge",
      "outputs": [
        {
          "name": "index",
          "type": "uint256"
        }
      ],
      "payable": true,
      "stateMutability": "payable",
      "type": "function"
    }
  ],
  "bytecode": "0x6080604052336000806101000a81548173ffffffffffffffffffffffffffffffffffffffff021916908373ffffffffffffffffffffffffffffffffffffffff1602179055506107dd806100536000396000f300608060405260043610610062576000357c0100000000000000000000000000000000000000000000000000000000900463ffffffff1680634ec3fb7c14610067578063715018a6146100f95780638da5cb5b14610110578063f2fde38b14610167575b600080fd5b6100e360048036038101908080359060200190929190803590602001909291908035600019169060200190929190803590602001908201803590602001908080601f01602080910402602001604051908101604052809392919081815260200183838082843782019150505050505091929192905050506101aa565b6040518082815260200191505060405180910390f35b34801561010557600080fd5b5061010e610484565b005b34801561011c57600080fd5b50610125610586565b604051808273ffffffffffffffffffffffffffffffffffffffff1673ffffffffffffffffffffffffffffffffffffffff16815260200191505060405180910390f35b34801561017357600080fd5b506101a8600480360381019080803573ffffffffffffffffffffffffffffffffffffffff1690602001909291905050506105ab565b005b600084600160003373ffffffffffffffffffffffffffffffffffffffff1673ffffffffffffffffffffffffffffffffffffffff1681526020019081526020016000206000018190555083600160003373ffffffffffffffffffffffffffffffffffffffff1673ffffffffffffffffffffffffffffffffffffffff1681526020019081526020016000206001018190555082600160003373ffffffffffffffffffffffffffffffffffffffff1673ffffffffffffffffffffffffffffffffffffffff168152602001908152602001600020600201816000191690555081600160003373ffffffffffffffffffffffffffffffffffffffff1673ffffffffffffffffffffffffffffffffffffffff16815260200190815260200160002060030190805190602001906102db92919061070c565b5034600160003373ffffffffffffffffffffffffffffffffffffffff1673ffffffffffffffffffffffffffffffffffffffff16815260200190815260200160002060040181905550600160023390806001815401808255809150509060018203906000526020600020016000909192909190916101000a81548173ffffffffffffffffffffffffffffffffffffffff021916908373ffffffffffffffffffffffffffffffffffffffff16021790555003600160003373ffffffffffffffffffffffffffffffffffffffff1673ffffffffffffffffffffffffffffffffffffffff168152602001908152602001600020600501819055503373ffffffffffffffffffffffffffffffffffffffff167f18fe074e1654d7d9858f679a18eec33bf8dd23ad6e1f1948c67241260c8e5811600160003373ffffffffffffffffffffffffffffffffffffffff1673ffffffffffffffffffffffffffffffffffffffff16815260200190815260200160002060050154856040518083815260200182600019166000191681526020019250505060405180910390a26001600280549050039050949350505050565b6000809054906101000a900473ffffffffffffffffffffffffffffffffffffffff1673ffffffffffffffffffffffffffffffffffffffff163373ffffffffffffffffffffffffffffffffffffffff161415156104df57600080fd5b6000809054906101000a900473ffffffffffffffffffffffffffffffffffffffff1673ffffffffffffffffffffffffffffffffffffffff167ff8df31144d9c2f0f6b59d69b8b98abd5459d07f2742c4df920b25aae33c6482060405160405180910390a260008060006101000a81548173ffffffffffffffffffffffffffffffffffffffff021916908373ffffffffffffffffffffffffffffffffffffffff160217905550565b6000809054906101000a900473ffffffffffffffffffffffffffffffffffffffff1681565b6000809054906101000a900473ffffffffffffffffffffffffffffffffffffffff1673ffffffffffffffffffffffffffffffffffffffff163373ffffffffffffffffffffffffffffffffffffffff1614151561060657600080fd5b61060f81610612565b50565b600073ffffffffffffffffffffffffffffffffffffffff168173ffffffffffffffffffffffffffffffffffffffff161415151561064e57600080fd5b8073ffffffffffffffffffffffffffffffffffffffff166000809054906101000a900473ffffffffffffffffffffffffffffffffffffffff1673ffffffffffffffffffffffffffffffffffffffff167f8be0079c531659141344cd1fd0a4f28419497f9722a3daafe3b4186f6b6457e060405160405180910390a3806000806101000a81548173ffffffffffffffffffffffffffffffffffffffff021916908373ffffffffffffffffffffffffffffffffffffffff16021790555050565b828054600181600116156101000203166002900490600052602060002090601f016020900481019282601f1061074d57805160ff191683800117855561077b565b8280016001018555821561077b579182015b8281111561077a57825182559160200191906001019061075f565b5b509050610788919061078c565b5090565b6107ae91905b808211156107aa576000816000905550600101610792565b5090565b905600a165627a7a723058201cb272fa548b2b2fc6a5c17ff945a5c6182c77a8e004f930125a860cfa12a0d30029",
  "source": "pragma solidity ^0.4.23;\nimport \"openzeppelin-solidity/contracts/ownership/Ownable.sol\";\n\ncontract SocialPressure is Ownable {\n\n    struct PledgeStruct {\n        uint expiresAt;  //timestamp \n        uint expectedNumberOfActions; // make certain number of bytes\n        bytes32 title;  // lookup bytes vs string and how it compares\n        string details;\n        uint collateral; \n        uint index;\n    }\n\n    mapping(address => PledgeStruct) private pledgeStructs;\n    address[] private pledgeIndex;\n\n    event NewPledge(address indexed userAddress, uint index, bytes32 title);\n\n    function createPledge(\n        uint _expiresAt,\n        uint _expectedNumberOfActions,\n        bytes32 _title,\n        string _details\n    ) \n        public \n        payable \n        returns(uint index)\n    {\n        pledgeStructs[msg.sender].expiresAt = _expiresAt;\n        pledgeStructs[msg.sender].expectedNumberOfActions = _expectedNumberOfActions;\n        pledgeStructs[msg.sender].title = _title;\n        pledgeStructs[msg.sender].details = _details;\n        pledgeStructs[msg.sender].collateral = msg.value;\n        pledgeStructs[msg.sender].index = pledgeIndex.push(msg.sender) - 1;\n\n        emit NewPledge(msg.sender, pledgeStructs[msg.sender].index, _title);\n        return pledgeIndex.length - 1;\n    }\n}\n",
  "sourcePath": "/Users/SamirMehta/programming/learn/consensys-academy/social-pres/contracts/SocialPressure.sol",
  "compiler": {
    "name": "solc",
    "version": "0.4.24+commit.e67f0147.Emscripten.clang"
  },
  "schemaVersion": "2.0.0",
  "updatedAt": "2018-07-06T15:29:05.450Z"
}